:020000021000EC
:10B0000000800020A1870200E1870200E3870200A0
:10B010000000000000000000000000000000000030
:10B02000000000000000000000000000E5870200B2
:10B030000000000000000000E7870200E98702002E
:10B04000ADEA0100EB87020021F70100EB87020067
:10B05000EB87020000000000DDEE0100EB8702003C
:10B06000EB870200EB870200EB870200EB87020010
:10B07000EB870200EB870200EB870200EB87020000
:10B08000EB870200BDBE0100EB870200EB870200E8
:10B0900099BF0100EB870200E98C0200EB870200F8
:10B0A000EB870200EB8702000000000000000000B8
:10B0B0000000000000000000000000000000000090
:10B0C00010B5064C2378002B07D1054B002B02D07E
:10B0D000044800E000BF0123237010BD00220020BF
:10B0E00000000000FCA60200044B10B5002B03D0AA
:10B0F0000349044800E000BF10BDC0460000000046
:10B1000004220020FCA60200164B002B00D1144B99
:10B110009D46402292029A1A924600218B460F4683
:10B120001348144A121A00F065F80F4B002B00D098
:10B1300098470E4B002B00D09847002000210400B8
:10B140000D000D48002802D00C4800E000BF00F0C0
:10B150002DF82000290005F0BDFA00F011F8C046D6
:10B160000000080000800020000000000000000037
:10B170000022002024380020000000000000000011
:10B18000084B10B50400002B02D0002100E000BFE6
:10B19000054B1868836A002B00D09847200000F008
:10B1A00031F8C046000000008C99020070B50026FE
:10B1B0000C4D0D4C641BA410A64209D100260EF0C4
:10B1C000D9FB0A4D0A4C641BA410A64205D170BDE0
:10B1D000B300EB5898470136EEE7B300EB589847B9
:10B1E0000136F2E7E8210020E8210020E8210020D4
:10B1F000EC21002003001218934200D1704719700F
:10B200000133F9E7FEE7C0460378012B01D1014A7B
:10B21000137070471E220020F0B54E464546DE46AC
:10B2200057469946E0B515004B424B4109225B4217
:10B230009343C5B00A336E480C00019304F062FAE0
:10B24000002800D087E04B46002B00D18BE0002483
:10B2500004AB0293519A4F9B944663449A4620272D
:10B260004E46019902988C46A44462468446039255
:10B270003132624403190092002900D19FE0019A03
:10B2800007555F70022A00D19DE09F70DF701F712B
:10B290005F719F71DF71082A00D198E01F720A2A3E
:10B2A00000D09FE00D221C0090465F720A34984443
:10B2B00010229446009B1D0063449B4609E02770C2
:10B2C0006770A7702F7001355D452ED0A31D4446D1
:10B2D0009846B245F3D94F9BB34262D94E9B9B5DD2
:10B2E00099464B461B11DAB211003731092B01DCAC
:10B2F000303211004A460F2313401A0021703732B2
:10B30000092B01D830331A006270A7700DF0C8FE07
:10B31000682248444378934301D12E3399464B46E3
:10B320002B70013501365D45D0D10D23009A039C69
:10B330001374033B53744346433422001F70029935
:10B340002C480DF0DCFEE2B22A49294804F05CF9F1
:10B35000041E2BD0B146484645B03CBC90469946A9
:10B36000A246AB46F0BD002C37D004AA236880214A
:10B37000140002924900204A20000DF0C9FE002866
:10B38000E9DB0600271828000DF0F4FE0400C228AF
:10B3900000D9C2242200290038000DF0B0FEA41903
:10B3A00058E7509AF31AD35C99469AE7104804F08C
:10B3B000A9F90028CED1564500D252E7CAE7DA1CD7
:10B3C00090461C0074E79C1C0533984670E70332D6
:10B3D0001C009046083498446AE704AB00260293A8
:10B3E0001F00D0E70C221C009046093498445FE708
:10B3F0004C20002020220020E8990200F0B5724D78
:10B40000C7B028000E0017001C0004F07BF90028CC
:10B4100012D1002E13D0802133686C4A490006A84F
:10B420000DF076FE031E07DB4C9A062A00D9C4E015
:10B43000674992008A589746002047B0F0BD4C9B60
:10B44000062B00D9BCE0634A9B00D3589F464C9022
:10B4500038000DF08FFE4C9B0400C318FF2B00D862
:10B46000A2E0002CE8DB22004C9B9C468023624437
:10B470005B009A42E0D8D6B2574C06A920000DF0E6
:10B480003EFE32002100280004F0BEF8434258413D
:10B49000C0B2D2E780210023490006A84C9323685C
:10B4A0003A000DF035FE0400DBE78021002349005F
:10B4B00006A84C936268236800923A000DF028FEBB
:10B4C0000400CEE780210023490006A84C93A2681F
:10B4D00023680192626800923A000DF019FE0400A0
:10B4E000BFE780210023490006A84C93E268236847
:10B4F0000292A2680192626800923A000DF008FE82
:10B500000400AEE780210023490006A84C9322697D
:10B5100023680392E2680292A26801926268009234
:10B520003A000DF0F5FD04009BE78021002349005F
:10B5300006A84C9362692368049222690392E26828
:10B540000292A2680192626800923A000DF0E0FD5A
:10B55000040086E7802106AA49001018C91A4C93F6
:10B560009DE7802106AA49001018C91A4C93CEE71E
:10B57000802106AA49001018C91A4C93B6E7802109
:10B5800006AA49001018C91A4C93A0E7802106AA00
:10B5900049001018C91A4C938CE7802106AA49006B
:10B5A0001018C91A4C93C5E74C9B06A89C4622006C
:10B5B000604439000DF0A3FD53E74C90002254E79E
:10B5C0000026320058E7C0464C200020E8990200CF
:10B5D00090990200AC99020020220020F0B51C4E88
:10B5E00089B033780500002B03D01A4B1B788342B7
:10B5F0002BD06C462200184B83CB83C283CB83C2F3
:10B6000003CB03C20923154F009302336360033B4E
:10B61000E36038000233A36003F076FF0022002DC0
:10B620000BD02100380003F0C9FE002803D101230C
:10B630003370084B1D7009B0F0BD094A2100380075
:10B6400003F0BCFE0028F2D0F5E70020F3E7C04687
:10B650001D2200201C220020C89902004C2000203E
:10B6600009B2010000487047FDB30100004870476F
:10B6700019B2010070B50020FFF7B0FF041E0ED113
:10B68000FFF7F0FF0500FFF7F1FFFF22054B9A607F
:10B690008222D2009D50044A1C605C6098502000B9
:10B6A00070BDC046202300201404000010B5012006
:10B6B000FFF794FF10BDC046F0B5CE46474680B5B3
:10B6C0001F4C83B0A368814698466B46DD1D00235E
:10B6D00028002B700F0001F03BF8A2686368266811
:10B6E000D31801339B1B012B09D82878002B1AD1C2
:10B6F00001F04EF803B00CBC90469946F0BD731CA7
:10B700002878236001F044F84A4607231340BA0220
:10B710000127DB001F4343461E400236B600174395
:10B72000A4196760E6E72923064989020B43711CC7
:10B7300016400236B6002160A4196360D8E7C046FF
:10B7400020230020F0990200F0B54646D6464F4629
:10B75000C0B582B06B46DE1D0023224C824630000D
:10B76000914633708846A56800F0F2FFA2686368CE
:10B770002768D3180133DB1B022B0AD83078002B43
:10B7800023D101F005F802B01CBC90469946A246B0
:10B79000F0BDBB1C3078236000F0FAFF524607234F
:10B7A000412113404246DB0092020B4313433A000F
:10B7B0002A4002329200A21853604B4601373D40A6
:10B7C0000235AD0064196360DDE72923064989026B
:10B7D0000B43791C17400237BF002160E4196360F6
:10B7E000CFE7C04620230020F0990200F0B557466D
:10B7F000DE464E464546E0B583B099466B46DF1DB2
:10B800000023264C8346380092463B708846A56844
:10B8100000F09EFFA26863682668D31801339B1B63
:10B82000032B0BD83878002B2BD100F0B1FF03B0DD
:10B830003CBC90469946A246AB46F0BDF31C387816
:10B84000236000F0A5FF5A4607238121134042469A
:10B85000DB0092020B43134332002A400232920073
:10B86000A21853605246731C2B4002339B00E3180E
:10B870005A604B46023635400235AD0064196360AC
:10B88000D5E72923064989020B43711C164002366D
:10B89000B6002160A4196360C7E7C04620230020DA
:10B8A000F0990200F0B55746DE464E464546E0B5F3
:10B8B00083B099466B46DF1D0023294C8346380030
:10B8C00092463B708846A56800F042FFA268636814
:10B8D0002668D31801339B1B042B0BD83878002B18
:10B8E00032D100F055FF03B03CBC90469946A246C9
:10B8F000AB46F0BD331D3878236000F049FF5A464F
:10B900000723C12113404246DB0092020B4313433D
:10B9100032002A4002329200A21853605246731C31
:10B920002B4002339B00E3185A604A46B31C2B405D
:10B93000023303369B003540E31802355A60AD00F0
:10B940000C9B64196360CEE72923064989020B43E7
:10B95000711C16400236B6002160A4196360C0E76E
:10B9600020230020F0990200F0B54546DE465746F8
:10B970004E46E0B5564D8DB06B682A689A4200D1AC
:10B980007BE0AF68591C3B409C1CA300EB185E6831
:10B99000032333400ED103223004B30D800D1B1856
:10B9A0005B18591C3B409C1CA300EB185E681300FD
:10B9B0003340F1D0022B2AD0B30A9846B3051B0FAF
:10B9C0005DD006A88446CA184C1C39400231890053
:10B9D0006918496802C021009442F5D1009382237E
:10B9E000B006DB00EE58400F634642460021B047E8
:10B9F000002840D16C682868041B601E8441E0B2B6
:10BA00000DB03CBC90469946A246AB46F0BD4B1CDF
:10BA10009846394002318900691840464A68390021
:10BA2000B30D994681432B48330428589B0D0131AF
:10BA30008246B00605938900400F894523D800212E
:10BA4000039102914946019141460F400337BF00DF
:10BA5000EF1900970021D047484509D08005020C16
:10BA60001D48A40006402C19164366606C68C2E7A6
:10BA7000C41CA40844446C60BDE70020C0E706AACB
:10BA80000C009446AAE74B46DBB29C46002918D02E
:10BA900043461F40CBB29B4663465946591A0C2376
:10BAA000DC469B460337BF00EF19C9B2AB445B4687
:10BAB00002936346039101930097059B0021D047B1
:10BAC000CAE700232F0000219B460C37EFE7C04652
:10BAD00020230020140400003F00FFFFF0B54F4674
:10BAE000D6464646C0B5214B1978994600292AD03A
:10BAF0001F4B002498461F4B1F4F01269A4603E018
:10BB00000134E4B28C421ED243461B6832009C468C
:10BB1000E500654428783B6882401A42F0D09343A0
:10BB20003B6003F0D1F932002B7851469A40096806
:10BB30000A40010099408A420AD04B4601341978E4
:10BB4000E4B28C42E0D31CBC90469946A246F0BDBC
:10BB5000697801394A425141091A484241416A68AB
:10BB6000C9B2002AE9D018009047E6E7382700203C
:10BB7000682700206027002064270020F8B5124DB8
:10BB80000700280000F086FD002807D10124BC40F2
:10BB90000E4E33681C4202D0A3433360F8BD380018
:10BBA00003F092F90A4A136800280BD0234313606C
:10BBB000336800221C43074B28001968346000F0EA
:10BBC00007FDEBE7A343F2E74027002064270020AE
:10BBD000602700203C270020F0B54746CE4680B5C0
:10BBE0000D00070083B014000720042A2CD903F0AD
:10BBF00047F8002833D01C4B1C4A1F601C4B1D709B
:10BC00001C4B1C60002313601B4A6C1E1360E4B2C3
:10BC1000002D1ED0194BE400994603233C1901ADB9
:10BC2000083F9846002602E0083CBC4211D043463B
:10BC30002B70A37820784A462900AE70EE706B70A6
:10BC400003F028F80028EFD003B00CBC90469946CA
:10BC5000F0BD0B4A00210B4800F0A4FCF4E702F011
:10BC6000DDFF0028C7D0EFE768270020602700200D
:10BC7000382700203C270020642700207DBB0100DE
:10BC8000DDBA0100FC99020070B5094D2B78002B3C
:10BC90000BD00024074E3268E300985C012103F0CA
:10BCA000B5F82B780134A342F5D8002070BDC0460A
:10BCB0003827002068270020002300B585B001AA9E
:10BCC0009060002103481380536000F005F805B030
:10BCD00000BDC0460140000010B509490120FFF732
:10BCE000EBFCFFF7E3FCFFF73FFE0028FBD1BFF3BF
:10BCF0004F8F044B044ADA60BFF34F8FC046FDE715
:10BD0000009A020000ED00E00400FA05032310B5DC
:10BD1000134011D1094C22604C1CE400A4B212194A
:10BD2000074C2260074A1370074A1370074B1880AC
:10BD30000020074B198010BD0720FCE77427002066
:10BD4000702700206C2700207C2700207827002007
:10BD50007A270020F0B546464F46D646C0B52D4E50
:10BD60000700338882B00D00904609208B4234D3FF
:10BD70006B46DC1D00232000237000F0E9FC264BFD
:10BD8000264A19782648CBB200219A4613780088B3
:10BD9000DBB28C46834202D20133DBB29C4623786D
:10BDA0009946E2451FD014781378E4B2DBB2002143
:10BDB00098421DD84846117000F0EAFCE30099460D
:10BDC0004246184B9A461B684B441A60002F01D01C
:10BDD000002D10D1002200209A8002B01CBC904699
:10BDE0009946A246F0BD180000F0D2FC0420F4E70A
:10BDF0000133D9B2DEE730880B4B444318682A0080
:10BE0000001939000DF07BF953461B6800204B44A4
:10BE10009D80E2E7782700207C2700206C27002007
:10BE20007A2700207427002070270020F0B5D6461E
:10BE30004F464646C0B51B4C1B4D22782B789A4284
:10BE400023D01A4B1A4F99461A4B1B4E9846002383
:10BE50009A464A461268207894463A88C0B2C3008F
:10BE600050434246126863449446998860441B6874
:10BE7000984723783288DBB29A420BD90133DBB280
:10BE8000237023782A789A42E3D11CBC90469946C5
:10BE9000A246F0BD5346237022782B789A42D8D11F
:10BEA000F3E7C0467C2700206C2700207427002081
:10BEB00078270020702700207A270020A021F0B5E5
:10BEC0000023C6462B4A490000B553500431535055
:10BED00004315350043153504C39535004315350B2
:10BEE000254B1B68002B35D0244900265458244A82
:10BEF000244F1268A41A00222402240A904602E069
:10BF0000002D18D02B001A68A24214D8A41AB61813
:10BF10001A7CDD69002AF3D0424699691A745A697D
:10BF20003B68002B1FD0100098470028E8D0FFF78F
:10BF3000C3FE002DE6D11449144A0B7812789A42B8
:10BF40000BD0134A9B009E5080218023114A5B0036
:10BF50004903D15004BC9046F0BD0132D3B2022B4C
:10BF600004D00B70EDE708009047C9E700230B7081
:10BF7000E7E7C04600100140A027002004050000AC
:10BF80009C27002080270020992700209827002048
:10BF90009027002000E100E0F0B55746DE464E460F
:10BFA0004546E0B5C84BC94A1B68C9499A46097855
:10BFB000137889B0994200D113E10133DBB2022B2F
:10BFC00000D1FAE01370C34A9B009A5853469B185D
:10BFD0001B021B0A99464946BB4B196001239C462C
:10BFE000BD4BBD491E78BD4B37001B68002405932F
:10BFF00049780091B84949680191B7498978029117
:10C00000B749097803910021884606910491B54902
:10C01000079100998F421ED001987900C919834673
:10C0200001370298FFB2381A451EA841C9004042A4
:10C03000594407400878022800D19FE00328E8D13E
:10C04000002BE6D01C74DB69002BFBD1012104918D
:10C0500000998F42E0D10499002900D0EDE1069BC0
:10C06000002B02D04946984B19604346002B03D061
:10C0700069469B4B097B19706346002B00D018E181
:10C080000024974B00961B7806938F4B1B689946AC
:10C09000059B9C46002303939A469846924B65461F
:10C0A0009B46002C30D06268A1682000E4694B46B2
:10C0B000D31A1B021B0A5B4557D85B180360424624
:10C0C00042608260012202744246C261002D00D1AA
:10C0D0009FE02A689A4200D394E0009E290084469B
:10C0E00003E00A689A4200D397E00800C9699B1AE6
:10C0F0000029F6D10200604694460096036063462C
:10C10000C161D861002CCED15246009EB74200D109
:10C110008DE0019A73009B1994460136029AF6B29B
:10C12000921B511E8A41DB0063441978524216402B
:10C1300001220129EAD15868027C002AE6D1924600
:10C140009A6800964260D96881601E69C6605B6922
:10C150008361069B002B67D052469A464B46D31A02
:10C160001B0242601B0A5B45A7D94B469A1A120272
:10C17000120A8A423AD28B1A0360A0E74D68002B5C
:10C1800000D146E79B469D4219D0180000E0080008
:10C19000C169002900D13CE78D42F8D18346854230
:10C1A0000ED058462968ED69C561002D00D130E7F1
:10C1B00028688346594429602BE7002302E71D00C5
:10C1C0000121DB690491002BEBD1012007998860E4
:10C1D0000121884603910691002189464146049138
:10C1E000DFE70023D14600229C46F9E64346036080
:10C1F00043608360012303744346C361002D08D06C
:10C2000000232A68D31A2B600123C561039305001C
:10C2100047E701230500039343E700960600D21A7F
:10C2200060460A60B44669E701239A463FE7AC4698
:10C23000002A00D0FEE0039B002B02D06246274B71
:10C240001A60264B059A1B68934202D1049A002A71
:10C2500025D0002B00D1B9E0244A2248244C815833
:10C260004A468A1A12022578120A1B680332002DE8
:10C2700063D0934200D21300A8244B4419481B02F8
:10C280001B0AE400194D035142595B1A521A12025B
:10C29000120A1B0203321B0A9A4200D970E00023E3
:10C2A0000F4A137009B03CBC90469946A246AB4673
:10C2B000F0BD00256446059BB44600210020A94638
:10C2C000B8462E002CE0C0469C270020982700206E
:10C2D000992700209027002084270020A0270020F5
:10C2E0008C27002000100140FEFF7F0004050000A5
:10C2F0008D2700201D68954200D95BE04946521BFE
:10C300004019DD681960DF69002D07D05146DE61F4
:10C310001E0009180902090A59609D6021003B00AE
:10C32000002BE7D1320047466646A4461400002998
:10C3300000D08DE063460493A3E68025D1266D02EC
:10C34000B6008551403E8551C0278026444DB60237
:10C350007F00EE512E60012505604248424F06687D
:10C360002F20C046C046C046C046C046C046C04654
:10C37000C046BE4200D0C0460138F2D1257078E7F1
:10C38000435939490351374B1A682F23C046C046D9
:10C39000C046C046C046C046C046C0468A4200D0DD
:10C3A000C046013BF2D1802380212D4A5B008902E7
:10C3B000D15074E7300047466646A4460400002981
:10C3C0004AD1AA1A1A60634604935AE68020802252
:10C3D0002349800288508022D2200125234952021D
:10C3E00080000A5040380A501E4A4D6010682F22C3
:10C3F0001D4C1600C046C046C046C046C046C0469A
:10C40000C046C046A04200D0C046013EF2D18D6079
:10C4100017490B60C046C046C046C046C046C0462D
:10C42000C046C046A04200D0C046013AF2D1114AEF
:10C43000137034E7104B1F70FDE610490B6005992F
:10C440000593C91A0800411E8841C1B2049106E64D
:10C450000A4A059313606DE7084905930B60B0E73E
:10C4600000E100E0782000200024F40000100140EA
:10C470009C2700208D27002084270020A027002053
:10C48000F0B5DE4657464E4645460324E0B59B468A
:10C49000144000D064E0002A00D161E080278025AC
:10C4A000334EBF027751D2238025324F6D029B005D
:10C4B000FD50403BFD5001232F4D7B6099462B687A
:10C4C0002F259C462D4B98462B00C046C046C046A3
:10C4D000C046C046C046C046C046C44500D0C0465F
:10C4E000013BF2D14B46BB60C046C046C046C04689
:10C4F000C046C046C046C046C44500D0C046013D07
:10C50000F2D15B461E4D2C701E4D2B6000251E4B3C
:10C510001C8099705A601D4B80221C601C4BC521E9
:10C520001D701C4B52031D70C0235B00F25089002C
:10C530007358FF34A3433F3C23437350A123DB00D4
:10C5400032600439F8507358134A00201A40C0234F
:10C550001B0213437350114BFA58114B1A6000E041
:10C5600007203CBC90469946A246AB46F0BDC0466B
:10C5700000E100E000100140782000200024F400D9
:10C580008D2700208027002084270020A02700205E
:10C590009827002099270020FF00FFFF04050000D6
:10C5A0009C270020094B5B68002B0AD0002A0AD088
:10C5B000002808D00368187C002802D159745A61F9
:10C5C00070470820FCE70720FAE7C04684270020D0
:10C5D000F0B54746CE4680B52A4C83B06368060066
:10C5E0000F009046002B44D0002842D004293ED9A9
:10C5F0004369002B3DD0437C012B3CD0002399465E
:10C600006B46DD1D002328002B7000F0A1F8617837
:10C61000A3784A1CD2B29B1A581E83415B421A402F
:10C620002378934229D04B005B186168DB008C466D
:10C630006344002B21D001211348197013495E6017
:10C640004158DF609960494619614146287859612F
:10C65000627000F09DF88023802100200C4A5B006E
:10C660004903D15003B00CBC90469946F0BD072059
:10C67000F8E70820F6E78946C2E7287800F088F84E
:10C680000420EFE78427002000100140040500008B
:10C6900000E100E070B51F4C82B063680600002B1B
:10C6A00030D000282ED04369002B2BD06A460023BF
:10C6B000D51D037428002B7000F04AF86178A37828
:10C6C0004A1CD2B29B1A581E83415B421A402378FF
:10C6D000934219D04B005B186168DB008C466344C1
:10C6E000002B11D0022119705E602878627000F072
:10C6F0004FF8802380210020074A5B004903D15076
:10C7000002B070BD0820FBE7287800F041F8042053
:10C71000F6E7C0468427002000E100E010B50400E1
:10C72000082902D00020FFF7C7FA606823689847FD
:10C7300010BDC04600B583B000900191034A0821A6
:10C740006846FFF707FB03B000BDC0461DC70100E8
:10C75000F0B5EFF3108172B60A4B5A68002A0DD17A
:10C7600001248025084E5C607459084F3C401C60D1
:10C7700077510270002900D162B6F0BD0123037029
:10C78000F8E7C0461838002000E100E0FC06FFBCD6
:10C7900010B5084B5A68002A0BD0002809D1EFF3D6
:10C7A000108272B604491C680C605860002A00D1DF
:10C7B00062B610BD1838002000E100E0F0B5294C49
:10C7C000294F668863683601BA1983B05168002B17
:10C7D00045D05A88033292009A188023DB00C8188B
:10C7E000824224D21368013321D0204D9388AB427A
:10C7F00014D01388002B11D01D4862608388016813
:10C8000003209B00C9185388207000200333009038
:10C810009BB2184801F050FC03B0F0BD53880333BD
:10C820009B00D218824202D213680133DED1BE19B6
:10C83000B389002B0BD00523022223700C4B0D482B
:10C840009A801968013A002301F0A8FCE4E700236C
:10C850000122084801F0A2FC04232370DCE70A004F
:10C860000832BAE71C280020A8280020FFFF00009B
:10C87000C8280020F0210020F0B5C64600B5436866
:10C88000002B03D0324A1468A34234D200230B8019
:10C89000304B00279C46304D3B0163445E6880234B
:10C8A000DB00F41800230DE01A68013212D09A88D8
:10C8B000AA4209D01A88002A06D09A6890460268CF
:10C8C000904510D0002B0BD05A88033292009B1851
:10C8D000A342E9D37B1C0B80012F36D00127DBE775
:10C8E00033000833F4E743601C4B1B8903810120AC
:10C8F00004BC9046F0BD52689342C7D89A07C5D190
:10C90000164A048912899442C0D102689C68A242E6
:10C91000BCD1104A94465268934207D98020C00087
:10C9200080464244934201D200230BE062465269A2
:10C9300000209342DCD98024E400A4466244934260
:10C94000D6D201230B800120D2E70020D0E7C046D9
:10C95000F0210020A8280020FFFF00001C28002054
:10C96000F0B54E46DE4657464546E0B5C74C8DB05D
:10C97000256F8146EF007E1BB600A3199B46A35D81
:10C98000062B00D97DE0C2499A008A5897460028B4
:10C9900000D08DE0BF4E317B3278002900D192E289
:10C9A0003073072A6DD8BC4992008A5897460028F0
:10C9B00000D07DE07A1B91008A46A046D0444146D3
:10C9C0000979012900D1CCE2002900D1AFE2022986
:10C9D00057D1002207AE726064E0B0487A1B8246ED
:10C9E0009200A218518A09015144884649460029FB
:10C9F00068D140464146406809898146127C8900D9
:10CA00008944062A00D999E3A54992008A58974695
:10CA1000002850D15A461679012E00D1C5E0002ECB
:10CA200000D1CBE2022E00D1D9E0032E21D19D4EC0
:10CA3000009002239C4A31689C4801F03DFB33681A
:10CA4000964A9C46934B90465B881B01D2185168CE
:10CA5000316061465160B188118102224146B28045
:10CA60004A465A545B461A71002864D07B1B9B00CF
:10CA7000E35C01208E4907AE0A7882430A700D30CC
:10CA800001E00F2007AE5A4612787060023A012A80
:10CA900008D85A46917D874A106C40181064506C33
:10CAA000411A5164062B21D8834A9B00D3589F46D4
:10CAB000012007AEE7E701207D4907AE0A788243EF
:10CAC0000A70E0E74046D1880089CA1C80184246B7
:10CAD000108103225242511A4246528901205218B3
:10CAE000414607AE4A81CEE705233370734D2F00D0
:10CAF00020372B68002B01D0300098470435AF4217
:10CB0000F7D1236F1C22D800C01A80002018002102
:10CB1000FEF770FB636F002B08D0226F013B511CA6
:10CB200003220A4022676367002B54D10421604A24
:10CB300013788B4313700DB03CBC90469946A246C7
:10CB4000AB46F0BD02237D1BAD00651933702B8908
:10CB5000B381AB88F381EB68B3602B7C063B5A4210
:10CB600053413374C2E701237D1BAD006519337057
:10CB70002B89B381AB88F381EB68B360B6E70423FC
:10CB80007D1BAD0065193370EB88B3810023F38101
:10CB9000ACE703237D1BAD0065193370EB88B381CF
:10CBA0002B89F381EB68B360A0E73C4B9A461B7876
:10CBB000022B00D1B5E253461B7C022B00D19FE231
:10CBC00002213B4A13780B43B34307AE13707060E6
:10CBD000002333708AE70020FFF7C2FEABE7314B3A
:10CBE00001229846414600230968304801F0D6FAF0
:10CBF00043464A469E805B461A7135E77288274B4A
:10CC000012019B189A89002A00D15AE205230222B8
:10CC10003370244B25489A801968013A002301F0AB
:10CC2000BDFA002800D186E77B1B9B00E35C244A09
:10CC3000904200D1CDE625E703201A4B726899880F
:10CC40001B68890059185388307000200333009006
:10CC50009BB2164801F030FAE3E71A4B1A4A1E88D5
:10CC60001A4B1248596800230093013301F024FA4B
:10CC7000002800D02EE2012336017D1B5644AD0072
:10CC8000B37364190533237455E7C0463028002078
:10CC9000189A02001C280020349A0200A8280020BC
:10CCA000549A0200C8280020009B0200F0210020B6
:10CCB00018280020D0270020709A0200B0270020FA
:10CCC0001D1D0000D2280020FC9A0200A42700208D
:10CCD0000023D448D44943607B1B9B009A46A2445E
:10CCE000029353469B690360FFF7C6FD002800D1FD
:10CCF00001E20023321DA218009349460133CB48BC
:10CD000001F0DAF9022352461374002800D112E729
:10CD1000029BE35C0E202FE0C54A536C002B00D130
:10CD200074E10720116C013B4E1C3040C9001064B7
:10CD30005364002053189A467E1BB600A6198A58E1
:10CD4000B18A9B88890000904944B84801F0B4F941
:10CD50005246B38A92889B18B382B37D013BDBB203
:10CD6000B375002B01D101333374002800D1E2E602
:10CD70000E207B1B9B00E35C46467A1B9200A218A8
:10CD8000D1883689CA1CB6184246168103225242FF
:10CD9000511A42465289521841464A8147E73200A9
:10CDA000002349460C320831A21800939F480133F2
:10CDB00001F082F97A1B9200A618B37D59424B41CB
:10CDC00001215B428B4303333374002800D1B2E668
:10CDD000A35C0E20D0E73200002349460832A21897
:10CDE000043100939148013301F066F97A1B9200F7
:10CDF000A35CA218D91E4E1EB14105311174002842
:10CE000000D198E686E78B48B6E70023321DA218CA
:10CE1000009349460133854801F04EF902217B1BFE
:10CE20009B00E2181174002800D184E6E35C71E7EE
:10CE3000814A71689388498803335B189380022381
:10CE40003370FFF7BBFCECE60723337000237A4A0C
:10CE50007360116875480093784A023301F02CF929
:10CE6000DFE6774A738892461B01534459680622CD
:10CE7000002332706D480093724A023301F01CF9AE
:10CE8000CFE6B37A002B09D000236D4AB3729389A1
:10CE9000002B03D1927B002A00D04BE1F37A002BC8
:10CEA00009D00023F372664B9A8B002A03D19B7F33
:10CEB000002B00D03DE100233370738073607B1B37
:10CEC0009B00E35C85E5072A00D9DAE55E4891001E
:10CED0004058874601233370B37AD3E7564A5849FE
:10CEE00013688A469C4673881B01C91848681060FD
:10CEF000604648609088088102219180B5E73389B7
:10CF00004F4A0133338100233373137859424B4125
:10CF1000DBB2B372127C51424A41F272012232708A
:10CF2000B0E7072A00D9ACE5484A5258974608228C
:10CF3000002108A8FEF75EF94346DB6804AA0793C0
:10CF400094460A2307AE634419003000FFF794FCAF
:10CF500000283FD102234246137153460A20E35C66
:10CF600091E53B4B1B789B0752D53A488388012BB0
:10CF70001CD8334902938A461B01043353441900D9
:10CF8000354B05929C4606239946C8444246A9461D
:10CF90000D002B1F1B78002B62D0029B1035013334
:10CFA000838002939BB2012BF3D94D4608220021C6
:10CFB000FEF720F97B1B9B00E35C0AE51E4B1F4A32
:10CFC000196800900223194801F076F801235A46A7
:10CFD000137149E54246716814488B88D3800B88E9
:10CFE000138104AB5B891D4A02934B4600930123D6
:10CFF00001F062F8002877D1029B114A1B01D31877
:10D0000001229A7302234246137194E51B68FFDEE6
:10D01000082200210F48FEF7EDF853460220E35C9A
:10D0200007AE30E5A4270020D2280020F021002000
:10D03000D02700201D1D0000C8280020089B0200EA
:10D04000A8280020009B02008C9A0200AC9A0200E3
:10D0500018280020D4280020FFFF0000FC9A0200BE
:10D060002B6880269846F600016804934644039591
:10D07000002936D04B8803339B00C918B1421CD21B
:10D080000B68013319D08B886345F3D00D88002DD0
:10D09000F0D0158801609D42EAD10023284A009310
:10D0A000284801334D4601F007F800283BD1012202
:10D0B000029B1B0153449A733DE50023039D0360CB
:10D0C0006BE75968013200231E4801F067F804231A
:10D0D0003370A6E506217B1B9B00E2181174E35C0C
:10D0E00018E604990831C9E70223424613715346F2
:10D0F0000E20E35CC7E4029B0A30E35C07AEC2E4A7
:10D100000126534636019B1959680023984600931F
:10D110000D4A02330B4800F0CFFF534642469A5562
:10D12000A2E40026EDE7059B0E209B00E35C07AE22
:10D13000A9E401237380FFF741FB72E50F201BE692
:10D14000FC9A0200F0210020009B020010B50800AC
:10D15000FFF706FC10BDC04610B5064A1378082B31
:10D1600006D005499C00605000200133137010BDAB
:10D170000C20FCE7D0280020B0270020F0B5DE46C8
:10D18000454657464E46E0B58DB01422002107A80B
:10D19000FEF730F8AB4D2B789A0712D5AA4C250034
:10D1A00020352368002B01D007A898470434A542F6
:10D1B000F7D100200DB03CBC90469946A246AB4644
:10D1C000F0BDDA07F5D4012213432B7000F012FFF3
:10D1D0009E4B00261B6800249A469D4B1A68C0236C
:10D1E0001B019C46944463460093002301930393E0
:10D1F000984BB4469946984B9B46984B1168994278
:10D2000043D1536896498B4200D198E095498B42AF
:10D210003BD1039B002B00D0E1E08F4F8023022104
:10D2200010003A60DB00B980D318926808300132F0
:10D2300000D1FEE08C49564602228846A24602E012
:10D240000168013114D08188414508D00188002946
:10D2500005D081688E4202D20E00012101914188E1
:10D2600003318C00521892B20019BA809842E7D369
:10D27000023A511E8A4104215446B24652420A40A3
:10D280000432614611438C4610E08023DB00D31842
:10D29000110002E004318B423CD008680130F9D023
:10D2A00003214846621C2401215494B21A00009BB9
:10D2B0009342A2D1019B6646002B00D0BEE0F6B29D
:10D2C0000B2E05D8694BB6009B599F46002305934A
:10D2D000674A536F032B12D86649496C08290ED848
:10D2E000116F581803210840C100091A0120890054
:10D2F000511808706846007D0133087153672B7818
:10D300005A0700D555E70422002013432B70FFF77E
:10D3100027FB4EE759460968002959D04D4E022097
:10D32000B0462101885541444A60534A08815480DF
:10D330000134A4B2624601210A439446B6E70023B1
:10D340004448210143548846030043441E005A6068
:10D350000491802302211000DB003181D3189268F0
:10D360000830013267D0002102913F4902228846ED
:10D37000210054468A4614E00188002914D08168AF
:10D38000A14202D90C0001210191418803318F0093
:10D39000521892B2C0193281984208D20168013104
:10D3A00005D081884145E7D101210291EDE7524640
:10D3B000A24614002749049A88466946097A4244DD
:10D3C000917361460222013411438C46A4B26DE789
:10D3D00059460A6002228A80013A0392AAE71D4850
:10D3E000022180461C4F23011954386843440134FC
:10D3F00058601981A4B211E70B20DBE602222B78DA
:10D40000114C1343012293432B70250020352368D0
:10D41000002B01D007A898470434A542F7D1C8E6ED
:10D420000123059354E70223059351E70323059352
:10D430004EE7042225E700220292BBE75246034B47
:10D440001A603CE718280020B02700202C28002074
:10D45000F0210020A8280020C8280020DEC0ADDE72
:10D46000FE011EF1FF011EF1FFFF0000CC9A020039
:10D4700030280020D02700201C28002030B50400D0
:10D4800083B00D00002819D0002917D06B46991DD4
:10D49000FFF7F2F9002813D06B46DA88094B120126
:10D4A0009B189A89616801329A812960636800201B
:10D4B0000C336B600123A37203B030BD0520FBE782
:10D4C0000A20F9E7A828002010B5040082B000283F
:10D4D00019D06B46991DFFF7CFF9002811D06B4684
:10D4E000DA880B4B12019B189A89002A0DD0A17A79
:10D4F00000290AD0013A9A8100230020A37202B0C9
:10D5000010BD0A20FBE70520F9E70620F7E7C04633
:10D51000A828002070B51A4B04001B789B071CD567
:10D5200000281CD0CB1C9BB2FD2B1AD8154A1078B2
:10D53000002806D1568910893018181880B2FF28A3
:10D5400011D9157C0720002D06D1568B158B751926
:10D550005D19ADB2FF2D10D970BD0220FCE705208A
:10D56000FAE70920F8E700250020000112189B19AE
:10D570005381002025806180EEE701250638F4E71D
:10D5800018280020A828002010B50F4B1B789B07F7
:10D5900016D5002816D00388022B0FD80B4A1B0182
:10D5A000D218538941885C1A032C07D42300033B0B
:10D5B0005381002303804380002010BD0420FCE73A
:10D5C0000220FAE70520F8E718280020A828002004
:10D5D000F0B5DE4657464E464546E0B57C4B85B035
:10D5E0001A78930700D4C0E0002900D1C1E00D886B
:10D5F000784B9D4200D1AFE04B88002B00D1ABE0CF
:10D600000F894D68002F00D1DBE02B689B0700D00D
:10D61000ADE02E00032408360023A046944605E022
:10D62000444632680836224200D0A0E001339F42CF
:10D63000F6D8624600230435FF00EF192E8808351E
:10D640009B199BB2BD42F9D1DD1CADB2FD2D00D9B5
:10D6500091E0614E3778002F08D174893789A04650
:10D660004744EF19BFB2FF2F00D8ADE0347C072745
:10D67000002C72D1748BA046348BA446C444AC44B5
:10D680006446A4B2FF2C68D80124063F03943C01F1
:10D690004544ADB237197D81504F0095B846454697
:10D6A0003F68A44601370C892F604D4D0294A9466E
:10D6B0006D6FA846032D00D97CE04A4DAB466D6CDA
:10D6C000019508252D1BAA46019D554500D971E0FD
:10D6D0000E880325B2464E884968B44600914946F3
:10D6E000096F0E0046442E40F100891B0226890076
:10D6F00049440E70CB80664600238E804B8156468F
:10D700000B746B460E819E894346CF604E828D829C
:10D710008C75494601334B67002C37D05E46366C1A
:10D720000721B446E6003824019D009B654429404A
:10D73000C9005C4459449E19A4469046814603E0C2
:10D7400029000833B34218D00D001A0011CA11C5C0
:10D750006145F5D15946F4E70427380005B03CBCD3
:10D7600090469946A246AB46F0BD0227F5E703274F
:10D77000F3E70527F1E70927EFE75946496C4246E9
:10D780008C4659464846029B63444B64002806D0A9
:10D79000002343608372144B07601B8903810027B9
:10D7A0005307DAD404231A43094B00201A70FFF7F9
:10D7B000D7F8D2E7009A6644D31A033B738108274F
:10D7C000CBE70023032544E70024002703945EE70A
:10D7D00018280020FFFF0000A82800202C28002087
:10D7E00030280020D02700201C280020F0B5574604
:10D7F000DE464E464546E0B5170083B0002A00D10C
:10D800008BE05E4B1C78A30700D47DE0002900D19B
:10D8100083E00B889B465A4B9B4500D181E04B88A7
:10D820009C46002B00D17CE00B894E68002B15D064
:10D830003268920700D072E0320003258046083239
:10D840000021AA46180004E05546136808322B420E
:10D8500065D101318842F7D8030040463A880092EA
:10D860007A880192474A116801311160464A91460F
:10D87000526F9046032A56D8444A9246576C082263
:10D88000D21A97424FD84A460325126F42442A4083
:10D89000D500AA1A022592004A4415706546958063
:10D8A0006D46AD88D160D5805D46158100255581D6
:10D8B00015746D462D8893755582032595824246D1
:10D8C0004D4601326A67002B43D05246126C382510
:10D8D000BA1807273A40DF00BC465544B444A8466E
:10D8E0006546D2009C465244894683462B0003E09D
:10D8F0003A000836B34223D01700310021C921C7AE
:10D900004245F5D15246F4E70226300003B03CBC54
:10D9100090469946A246AB46F0BD0526F5E703269C
:10D92000F3E70426F1E70321009B49421A01184B53
:10D9300008269B18019A891A5A8952185A81E4E7D5
:10D940005246526C63469446524649465846634492
:10D950005364002806D00023436083720D4B01609E
:10D960001B89038100266307CFD404231C43034B88
:10D9700000201C70FEF7F4FFC7E7C04618280020FF
:10D98000FFFF00002C28002030280020D027002096
:10D99000A82800201C280020F0B5DE4657464E4639
:10D9A0004546E0B587B0002800D1C9E07D4B1A7824
:10D9B000930700D4BBE0002900D1C1E00D887A4B69
:10D9C0009D4200D1C0E04B88002B00D1BCE00F8904
:10D9D0004D68002F00D1DDE02B689B0700D0B1E03F
:10D9E0002E00032408360023A046944605E0444652
:10D9F00032680836224200D0A4E001339F42F6D8B4
:10DA0000624600230435FF00EF192E8808359B1964
:10DA10009BB2BD42F9D1DD1CADB2FD2D00D995E020
:10DA2000624E3778002F08D174893789A046474461
:10DA3000EF19BFB2FF2F00D8AFE0347C0727002CCE
:10DA400076D1748BA046348BA446C444AC4464465F
:10DA5000A4B2FF2C6CD80124063F05943C01454438
:10DA6000ADB237197D81524F0195B84645463F68A2
:10DA7000A44601370C892F604E4D0394A9466D6F63
:10DA8000A846032D00D97EE04B4DAB466D6C029548
:10DA900008252D1BAA46029D554500D973E00E8826
:10DAA000B2464E884968B44604914946096F0668F3
:10DAB000414401960D0003263540E900491B8900C9
:10DAC0004944CB8053460B8100234B8104330B74B4
:10DAD0006B4665469B8A0E708E82019E4B82434642
:10DAE0008D80CF608C758E61494601334B67002C69
:10DAF00037D05E46366C0721B446E6003824029DD6
:10DB0000049B65442940C9005C4459449E19A446BD
:10DB10009046814603E029000833B34218D00D0037
:10DB20001A0011CA11C56145F5D15946F4E702271B
:10DB3000380007B03CBC90469946A246AB46F0BDC3
:10DB40000527F5E70327F3E70427F1E70927EFE7C0
:10DB50005946496C42468C4659464846039B6344A5
:10DB60004B64002343608372144B07601B890027BA
:10DB700003815307DCD404231A430A4B00201A7094
:10DB8000FEF7EEFED4E7019A6644D31A033B738195
:10DB90000827CDE70023032542E70024002705944A
:10DBA0005CE7C04618280020FFFF0000A8280020DE
:10DBB0002C28002030280020D02700201C280020FE
:10DBC00070B5184C2278930720D5174B984226D071
:10DBD000164D696F032917D8154B5B6C082B13D8AA
:10DBE0002B6FCE1803231E40F3009B1B05269B00C2
:10DBF000EB181E700131043E1E71D8806967002544
:10DC0000530705D5280070BD0825FBE70225F9E775
:10DC1000042300201A432270FEF7A2FEF2E7042537
:10DC2000F0E7C04618280020FFFF00003028002041
:10DC3000D027002070B516480278930725D51549DE
:10DC40004B6F032B1ED8144C646C082C1AD80C6F25
:10DC50001D1903242540EC00641B06250133A40094
:10DC600065544B670D4B1978002901D001211973B8
:10DC70000024530707D404231A4302700020FEF740
:10DC80006FFE00E00824200070BD0224FBE7C046C0
:10DC90001828002030280020D02700201C28002031
:10DCA000F0B5D6464F464646C0B58C4611002E4AC2
:10DCB0001278920755D500293BD0002B39D09A888D
:10DCC0009046012A48D8294C12010432A218002497
:10DCD000A146274F141F2478002C34D11C681668E5
:10DCE000002C3BD065880335AD0064198025ED001C
:10DCF000AA465644A64224D92568013521D0A588D4
:10DD0000BD4218D02588002D15D01C60A5888542FD
:10DD1000E5D125886545E2D10020A2680A601B682C
:10DD20004B60144B1B890B811CBC90469946A24644
:10DD3000F0BD0520F8E765880335AD006419A642FB
:10DD4000DAD84C461C60444601250134A4B29C80BC
:10DD50001032A846022CBDD10A20E5E73400083471
:10DD6000C4E70220E0E7C04618280020A8280020C9
:10DD7000FFFF00001C280020F0B5CE46474680B5C6
:10DD80002C4B1B789B0750D500291BD0002A19D09B
:10DD900093889C46012B13D81B01274F0433FF188F
:10DDA00000239846254E3B1F1B78002B0FD063465F
:10DDB000012401339BB293801037A446022BF2D189
:10DDC0000A2000E005200CBC90469946F0BD13687F
:10DDD00006E01C88002C16D013601C8884421BD0DF
:10DDE0003D68002B23D05C880334A4001B198024D9
:10DDF000E400A1464D449D420BD91C68013408D073
:10DE00009C88B442E5D15C880334A4001B199D4270
:10DE1000F3D843461360CAE79B6800200B60136881
:10DE20004B60074B1B890B81CDE70220CBE72B0012
:10DE30000833DCE718280020A8280020FFFF000096
:10DE40001C280020F0B5CE46474680B52C4B1B78E9
:10DE50009B074FD500291BD0002A19D093889C46D8
:10DE6000012B13D81B01274F0433FF1800239846BA
:10DE7000254E3B1F1B78002B0FD063460124013336
:10DE80009BB293801037A446022BF2D10A2000E007
:10DE900005200CBC90469946F0BD13683D68002BE8
:10DEA0002AD05C880334A4001B198024E400A14616
:10DEB0004D449D421BD91C68013418D09C88B44243
:10DEC0000FD01C88002C0CD013609C888442E5D1B4
:10DED0009B6800200B6013684B600C4B1B890B8107
:10DEE000D7E75C880334A4001B199D42E3D843465E
:10DEF0001360C2E70220CCE72B000833D5E7C04609
:10DF000018280020A8280020FFFF00001C2800205F
:10DF1000002805D0002903D0036800200B6070475B
:10DF20000520FCE729DF704728DF704770B52F4CCC
:10DF300086B0636E002B29D0266E7500AB19DB000E
:10DF4000E3181A7A012A2BD0022A21D010220021AC
:10DF500002A8FDF74FF9AB19DB00E3181A7A012A82
:10DF60003BD0022A07D1012202A90A709A89DB89D3
:10DF70004A81D31A0B81AD19ED0063195B68092141
:10DF800001930393635902A89B68984706B070BD3C
:10DF90009889FFF7C9FF112814D00028F6D0D5E7DB
:10DFA0009A8AD88A121AFF2A14DC92B2AB19DB00C3
:10DFB000E318D9681B69800009181818FFF7B2FF29
:10DFC0001128EAD102210A4A13788B4304210B431A
:10DFD0001370DBE780225200E8E7002202A90A70F2
:10DFE0001A699B8A04928B81C5E7C046E02800200D
:10DFF000DC280020F0B5D6464F464646C0B52A4B31
:10E000005D696B1C03D180235B055D69AD02274B05
:10E0100099461B789846DB0740D4254B254C9C46F7
:10E02000E41A240934D0A246210161441A68002A66
:10E0300005D05A68501E82415046821A92461033CB
:10E040009942F3D15346002B22D00026F1B2634609
:10E050000022002703E00132103394420ED01868EA
:10E06000002802D058680028F5D1587B8742F2D2A8
:10E07000D1B20132070010339442F0D10B01634456
:10E080001A7B5D609202AD1A01361D605645DDD1E6
:10E09000012342461A4313004A46137000201CBC59
:10E0A00090469946A246F0BD00100010DC280020E2
:10E0B000F021002000220020F8B54E464546574684
:10E0C000DE46E0B5314E9946337805000F009046A4
:10E0D0000124DB074BD5002850D02D4B98424DD35F
:10E0E0002C4B98424AD2131E4AD0002948D00B43E9
:10E0F00005349B073BD103688B4243D84B464268AB
:10E100009B00CB189A423DD34B46023C002B2ED0AD
:10E11000214B9B465B6E042B36D05A46126E9A18E2
:10E12000032A00D9043A594601334B6653009B1821
:10E13000DB009A465C465444182220000021FDF77B
:10E1400059F80A9B524663605B469D500123237237
:10E150004346E3604B460622A382337827610024BE
:10E160001A4204D1022213433370FFF7DFFE20006E
:10E170003CBC90469946A246AB46F8BD0224F6E761
:10E180000324F4E70524F2E70724F0E7DC28002065
:10E19000F021002000220020E0280020F8B54E46A3
:10E1A00045465746DE46E0B52F4E99463378050082
:10E1B0000F0090460124DB0745D500284AD02B4BA1
:10E1C000984247D32A4B984244D2002948D08B0525
:10E1D00044D103688B423FD893024268CB189A42DD
:10E1E0003AD343460334002B2DD0224B5A6E9B4624
:10E1F000042A37D01B6ED318032B00D9043B5C00D4
:10E20000E418E400A2465946DA4401324A66504610
:10E2100018220021FCF7EEFF53464A465A605B463F
:10E2200052461D510223BF0A13729781534642463C
:10E230001A820622337800241A4204D102221343A0
:10E240003370FFF773FE20003CBC90469946A2460F
:10E25000AB46F8BD0224F6E70524F4E70624F2E70E
:10E260000324F0E70724EEE7DC280020F02100205B
:10E2700000220020E0280020002804D0034B5B6E21
:10E280000360002070470320FCE7C046E028002020
:10E29000F0B54F464646D646C0B5B44FB44C3B7871
:10E2A00084B0266E9A0747D5022800D1B2E0032831
:10E2B00000D0A9E0AF4A13780133DBB21370032B0F
:10E2C00000D8A1E00023E94613700021102248463F
:10E2D00075009846FCF78EFFAB19DB00E3181A7A3D
:10E2E000012A00D103E1022A07D1494601220A701E
:10E2F0009A89DB894A81D31A0B814946AB19DB0025
:10E30000E2185268E3584A6008219B6848469847DB
:10E31000636E5A1E6266002A00D007E102213B7834
:10E320008B433B70236E01332366042B35D10023CE
:10E330000026236623003AE00421626E194232D09F
:10E340008B43002A28D0022275001343AA19D20059
:10E35000A2183B70117AAB19DB00E31801292FD109
:10E36000D08AAB19DB00E3189A8A121AFF2A00DD63
:10E370007CE092B2AB19DB00E318D9681B6980001E
:10E3800009181818FFF7CEFD112800D06BE0022203
:10E390003B789343042213433B7004B01CBC90466B
:10E3A0009946A246F0BD7500AB19DB00E318002AC0
:10E3B000F3D07500AA19D200A218117A0129CFD082
:10E3C00002294AD0E946102200214846FCF712FFF4
:10E3D000AB19DB00E3181A7A012A73D0022A07D19D
:10E3E000494601220A709A89DB894A81D31A0B8136
:10E3F0004946AB19DB00E2185268E3584A609B6853
:10E40000092148469847C8E77500AB19DB00E318B7
:10E41000626ECCE700239A465246564B75001A703E
:10E42000AB19DB009846A04443461B7A012B20D051
:10E43000022B02D04346626EB9E7434642469B89AF
:10E4400001339381D38901339BB2D381128A9A42DB
:10E4500055D0636E002BA0D043469889FFF764FD2A
:10E46000112800D193E7002897D0ABE78022520013
:10E4700080E742464346D08A9B8A1A1AFF2A2ADC42
:10E480004246D382E946102200214846FCF7B2FEFC
:10E49000AB19DB00E3181A7A012A52D0022A07D1FD
:10E4A000494601220A709A89DB894A81D31A0B8175
:10E4B0004946AB19DB00E21852684A60E358002174
:10E4C0009B6823E7002249460A704A4619699B8ADD
:10E4D000916093818CE742460130FF3080B2D08258
:10E4E0008342CFD0636E002B00D03AE755E74A460F
:10E4F0004146117019699B8A91609381FDE6E94656
:10E50000102200214846FCF775FE43461B7A012B7A
:10E5100020D0022BCCD101234A46137043464946F2
:10E520009A89DB894A81D31A0B81C1E7236E5E1C6D
:10E530002666042E00D1FAE67500AB19DB00E3185D
:10E5400038E7002249460A704A4619699B8A916059
:10E550009381ADE74B4652461A70424612699A6063
:10E5600043464A469B8A9381A2E7C046DC280020A6
:10E57000E0280020482900200123034217D142103F
:10E58000134216D18210134215D1C210134214D176
:10E590000211134213D14211134212D182111342BC
:10E5A00011D1C011094B01381840073070470020C5
:10E5B000FCE70120FAE70220F8E70320F6E7042051
:10E5C000F4E70520F2E70620F0E7C046F8FF000078
:10E5D00010B500281AD0002918D00488944223D0FE
:10E5E0004488944222D08488944221D0C4889442A2
:10E5F00020D0048994421FD0448994421ED084893B
:10E60000944204D0C0890724904201D010BD062452
:10E610000122A2400878D2B2002B02D002430A7035
:10E62000F4E790430870F1E70024F1E70124EFE7F5
:10E630000224EDE70324EBE70424E9E70524E7E7F8
:10E64000F0B5CE46474680B507AC2578002821D0E6
:10E6500000291FD0002A1DD004889C4200D1EAE086
:10E6600044889C4200D1E8E084889C4200D1E6E0E6
:10E67000C4889C4200D1E4E004899C420ED04489C5
:10E680009C4200D1DFE084899C4200D1DDE0C0895A
:10E6900098426CD00CBC90469946F0BD04230124EE
:10E6A0009C40E4B2E6434B42F6B2002D61D1032414
:10E6B0001C40E01C531E834200D2DAE0002C00D143
:10E6C000CEE00B7833400B70012C00D1C5E04B78C5
:10E6D00033404B70032C00D0C5E08B7833408B70F7
:10E6E00003239946131B98469B089C4633023343E9
:10E6F00030043506184328430700002300250C1971
:10E70000E05801353840E05004336545F8D3032321
:10E710004046984303004846C7189845BAD0C819E0
:10E720000378334003707B1C9A42B3D9CB18187816
:10E7300030401870BB1C9342ACD2CB1818783040D4
:10E740001870FB1C9A42A5D9CB1818783040187065
:10E750003B1D9A429ED9CB18187805373040187067
:10E76000BA4297D9CF193B781E403E7092E70723F3
:10E7700095E703251D40E81C531E83427BD3002DE3
:10E7800068D00B7823430B70012D60D04B78234366
:10E790004B70032D6AD18B7823438B7003239946EA
:10E7A000531B98469B089C462302234320042606BD
:10E7B000184330430700002300264D19E85801365E
:10E7C0003843E8500433B445F8D80323404698430F
:10E7D00003004846C718984500D15BE7C81903787D
:10E7E000234303707B1C9A4200D853E7CB18187858
:10E7F00020431870BB1C9A4200D84BE7CB181878FE
:10E8000020431870FB1C9A4200D843E7CB181878B5
:10E81000204318703B1D9A4200D83BE7CB1818786C
:10E82000053720431870BA4200D833E7C9190B786E
:10E830001C430C702EE7002331E701232FE702234E
:10E840002DE703232BE7052329E7062327E70123E9
:10E850009946A5E700239946A2E70123994641E797
:10E86000002399463EE7022399463BE70223994657
:10E8700096E7002753E70027B0E7C046002819D0E5
:10E880000388934218D0438893421AD083889342D6
:10E890001BD0C38893421AD00389934213D0438973
:10E8A000934216D08389934215D0C38900209342A6
:10E8B00013D070470020FCE70023194101200840D5
:10E8C000F7E70123F9E70423F7E70223F5E703233A
:10E8D000F3E70523F1E70623EFE70723EDE7C0465B
:10E8E00030B50023002935D0D40702D50B888380AA
:10E8F0000123940704D55C004D880419A5800133D9
:10E90000540704D55C008D880419A58001331407D1
:10E9100004D55C00CD880419A5800133D40604D544
:10E920005C000D890419A5800133940604D55C00B0
:10E930004D890419A5800133540604D55C008D89E6
:10E940000419A5800133D21104D05A00C989821854
:10E9500091800133036030BDA022044BD205D3580F
:10E96000034A125C0120D34098437047040500001D
:10E97000149B0200044BA0211A5C01239340034A1C
:10E98000C9058B507047C046149B02000C0500005F
:10E99000044BA0211A5C01239340A122C905D20097
:10E9A0008B507047149B0200A022A1238021D20526
:10E9B000DB008903D1508021C903D1508021090493
:10E9C000D15080214904D1507047C046A0228021F7
:10E9D000064BD2058903D1508021C903D150802133
:10E9E0000904D15080214904D15070470C05000022
:10E9F000A02210B5074BD205D158074B185C012354
:10EA000083401C00A1208C430B400449C0001450DB
:10EA1000535010BD04050000149B02000C050000BB
:10EA2000A02303220B49DB055A5004315A500A49EE
:10EA30005A5004315A50A1228021D20089039950A2
:10EA40008021C903995080210904995080214904EB
:10EA500099507047540700005C070000A022A223D1
:10EA6000D205DB00D358034A125C0120D3409843FF
:10EA70007047C046109B020011280BD012280BD003
:10EA800013280BD014384342584104234042184005
:10EA9000013870470020FCE70120FAE70220F8E780
:10EAA000014B185C7047C046109B020010B51A4B12
:10EAB0001A68002A14D0002280211A60C222012381
:10EAC000164CC90592008B506370A368002B07D0C9
:10EAD0001A6800205B68A2609847A368002BF7D1F2
:10EAE0000F4B1A68002A15D000221A608022C22318
:10EAF00002219B00D205D1500123084CA370236949
:10EB0000002B07D01A6801205B68226198472369AF
:10EB1000002BF7D110BDC046000100404C29002059
:10EB20000401004010B500280BD1064CA368002B4F
:10EB300007D01A6800205B68A2609847A368002B82
:10EB4000F7D110BD4C29002030B583B06B46DD1DD8
:10EB5000002328002B70FDF7FBFD144C2378002BBD
:10EB600009D0E36828780133E3600123A370FDF73F
:10EB70000FFE03B030BD6360A3602361E3600C4B04
:10EB80001B68DB070CD50AF045F8002805D1802268
:10EB9000A3230121D205DB00D15001232370E0E73C
:10EBA0000321002000F006F8EDE7C0464C290020C4
:10EBB00000E100E0FF22032330B51400C5B22B4072
:10EBC000DB009C4089010A40E4439A40002814DBA2
:10EBD000104B80089C46C023800060449B00C158B5
:10EBE0000C402243C2501F23C0211D401E3BAB409E
:10EBF000084A49005350136030BD0F2306492B408B
:10EC00008C46083B9B089B006344D9690C40224317
:10EC1000DA61E8E700E100E000ED00E070B54425CE
:10EC2000144C665D002E22D101235B422360636099
:10EC3000A360E36023616361A361E36123626362B4
:10EC4000A362E36223636363A363E3632364032137
:10EC50000620FFF7AFFF084B80211E60C123074A43
:10EC60009B000906D15001230020635570BD082088
:10EC7000FCE7C046602900207C6100400060004045
:10EC80004423034AD05C431E9841C0B27047C0463B
:10EC900060290020F0B5CE46474680B5584B9146D6
:10ECA0001D1820352E7808247F2E3DD9CF78002FCF
:10ECB0003FD11A69013200D199E005240826A50048
:10ECC0005A5901325AD0621C950094465A59013261
:10ECD00000D18AE0A21C9446B24224D295005A592F
:10ECE000013200D181E0E21C9446B2421BD2950071
:10ECF0005A59013200D178E0221D9446B24212D214
:10ED000095005A59013200D16FE0651DB5420AD213
:10ED1000AA009A58013200D16FE00634B44202D200
:10ED2000DA69013228D0042420000CBC90469946B0
:10ED3000F0BD1A68012404260132C0D100264A46DB
:10ED40002E701A608A78002A2AD0A024E405A446EE
:10ED5000E025022782006244ED005459BC4354511F
:10ED60000A78C978002928D19B193C331978920177
:10ED70000A431A700024D7E707241C251A18944662
:10ED800020229046C444624666B216704A465A51E2
:10ED9000002FD7D11C193C3420708A78002AD4D196
:10EDA0000200A0254C78C132FF329200A400ED058C
:10EDB00054510A78C9780029D6D01249B3008C463C
:10EDC000A2216344C9005C580F4D00022C40F82575
:10EDD0006D012840C0255C501204AD025C582A40E9
:10EDE00010432043585000249EE76446C6E704249D
:10EDF0004A462C701A610426CCE72C00AD00BDE712
:10EE00006029002000600040FFE0FCFF0023F0B517
:10EE10002A4C22182032D356032B1FDDE3183C3333
:10EE20001B789B09032B3AD0013B5A1E9341802249
:10EE30005B42520213408022920294466344A02215
:10EE4000D2059446E02280006044D20081581C4CD8
:10EE50002140815081580B438350F0BDD8B2032824
:10EE6000FBD8184DA227AC46012698006044FF004D
:10EE7000C5593543C551180065460027403080000C
:10EE800080B247510029E8D0127852B2920012594C
:10EE9000002AE2D09E40C1239B00EE50DDE7A02275
:10EEA000A223D205DB00D2580123C2401340C02266
:10EEB00092029446013B1B046344C0E76029002092
:10EEC000FFFFFCFF00600040A022A223D205DB0070
:10EED000D358C340012018407047C046F0B5DE4605
:10EEE00057464E4645460021E0B5CB4A87B00391D0
:10EEF00013680024012B00D148E1C84B1A68012A8D
:10EF000000D150E1C64B1A68012A00D15BE1C54B24
:10EF10001A68012A0FD0C44B1B68012B00D15EE197
:10EF2000230717D1002C34DB07B03CBC9046994630
:10EF3000A246AB46F0BDC122BC49920089580822C6
:10EF40000A42E8D000211960B74B14431B68012B1B
:10EF500000D144E11F239946B54BA2270126002585
:10EF60009846FF0026420ED04946B04AAB009A1898
:10EF7000D059000A0840D1594246D3588903890F15
:10EF8000002B00D0984701357600042DEAD1002CE3
:10EF9000CADA00230493013B059341339846C02607
:10EFA000A34C4346E1564B1C2CD007230127C9B282
:10EFB00008000B409F40B043C20805AB9B5C1F425A
:10EFC00020D0231820331B7889095BB29B00E358BB
:10EFD0009B46002B00D16CE1032900D16CE1A025F8
:10EFE000ED05A94683009944E0234D46DB00EB582C
:10EFF00003ADAA5C9B039B0F174200D027E1032BB4
:10F0000000D16DE100274123E1564B1C37D0072387
:10F010000125C9B20B409D4008002B00B043C20837
:10F0200005ADAD5C2B422AD02518AC462025A9465B
:10F03000CC4465462D7889096DB2AD0065590191C2
:10F04000A946002D00D126E1032900D126E1850043
:10F05000AA46A025ED05AC46E025ED00E244AC460D
:10F060005546614669588903890F8C4603A98A5C15
:10F07000134200D0F2E06346032B00D179E1422332
:10F08000E1564B1C37D007230125C9B20B409D40E8
:10F0900008002B00B043C20805ADAD5C2B422AD05E
:10F0A0002518AC462025A946CC4465462D7889090B
:10F0B0006DB2AD0065590191A946002D00D101E165
:10F0C000032900D101E18500AA46A025ED05AC4643
:10F0D000E025ED00E244AC46554661466958890397
:10F0E000890F8C4603A98A5C134200D084E06346F2
:10F0F000032B00D126E14323E1564B1C36D00723D6
:10F100000125C9B20B409D4008002B00B043C20846
:10F1100005ADAD5C2B4229D02518AC462025A9466B
:10F12000CC4465462D7889096DB2AD0065590191D1
:10F13000A946002D00D1A0E0032900D1A0E0850060
:10F14000AA46A025ED05AC46E025ED00E244AC461C
:10F150005546614669588903890F8C4603A98A5C24
:10F16000134267D16346032B00D1D2E0002F00D1B8
:10F17000DAE6A022A223D205DB00D358039A9342F9
:10F1800000D1D1E60393049B05930AE7C120274CE5
:10F19000800024581C4000D1AFE6204B11601A6853
:10F1A000012A00D0AEE6C1222049920089580222ED
:10F1B0000A4200D1A6E600211960194B14431A68CF
:10F1C000012A00D0A3E6C1221849920089580422DE
:10F1D0000A4200D19BE600211443196097E6002201
:10F1E000114B1A6080231B061C43A022A223D205C8
:10F1F000DB00D358039393E66346022B00D07AE7F3
:10F20000019B032B00D1D3E04B46002B00D172E7CA
:10F210000199C8476FE7C0460061004004610040A3
:10F22000086100400C6100407C61004000600040CB
:10F23000602900206346022B98D1019B032B00D14B
:10F24000AEE04B46002B91D00199C8478EE7022BC8
:10F2500000D0D7E6032959D0002751E06346022B9E
:10F2600000D00CE7019B032B00D19DE04B46002B07
:10F2700000D104E70199C84701E7032900D075E7E9
:10F2800004A98C4694446146097819438A4661462C
:10F2900055460D7053E7032900D0F0E604A98C46CB
:10F2A00094446146097819438A46614655460D7073
:10F2B000CDE6032900D0A5E604AB9B181D783D439D
:10F2C0001D708CE6032900D015E704A98C469444F0
:10F2D0006146097819438A46614655460D70F2E643
:10F2E0000329B9D180229202E0234D46DB00EF587A
:10F2F000314D2F404D46EF50EF581743EF50012747
:10F300005B46002B00D17EE6D8477CE6C022920205
:10F31000EAE7019B032B94D180239B029C46E023C8
:10F320005246DB00D258244901370A405146CA50A0
:10F33000CA5861460A435146CA504B46FFB2002B99
:10F3400082D116E7019B032B00D05DE780239B024F
:10F350009C46E0235246DB00D258174901370A4049
:10F360005146CA50CA5861460A435146FFB2CA5074
:10F370004AE7019B032B00D078E780239B029C4641
:10F38000E0235246DB00D2580B4901370A40514670
:10F39000CA50CA5861460A435146FFB2CA5065E78F
:10F3A000C0239B029C46BAE7C0239B029C46E7E72A
:10F3B000C0239B029C46CCE7FFFFFCFFF8B5CE467E
:10F3C000474680B507794A4CFE00F31B9B00E318C3
:10F3D000DB7E050091460820002B5DD10B685A1C8E
:10F3E0000DD007389840A1220300A020D200C0050C
:10F3F000835003220B68C133FF339B001A504B68C4
:10F400005A1C06D0A0200022C133FF339B00C00548
:10F410001A5028688A69374BC250087D4B7D2A688C
:10F420000343354813500A682B68944633484A68AA
:10F430001A50624632481A500B7D012B30D04A4692
:10F44000F31B9B00E01842600A69E2504B46002B18
:10F4500012D08E22002328685200097F835028682A
:10F4600028328350C1232868264A9B00C2502B684B
:10F47000180B40B2FFF79EFBA02304212A68DB0093
:10F48000D150002301220020F61BB600A419E37519
:10F490002376A375E276A3760CBC90469946F8BD18
:10F4A0008B685A1C06D0A0200022C133FF339B007A
:10F4B000C0051A50CB685A1C0ED001209840A122DA
:10F4C0000300A020D200C00583500322CB68C133C3
:10F4D000FF339B001A50CB688A6828689446A122A3
:10F4E000D2008350A2236246DB00C250A7E7C04689
:10F4F000A8290020240500006C0500001405000068
:10F500000C05000080000200F0B54546DE46574677
:10F510004E46E0B5037900229C46A0230168DB003B
:10F52000CA50634662463349DB0088469A1A920005
:10F530004244526883B0002A0DD0C2222E4C01688A
:10F5400092008C50012402682C4DD203D20E9440BC
:10F55000220080242A510268294CA2271659A2466B
:10F56000284CFF00A34615590C3CA146B846145937
:10F57000D7595946019701277F4257505146575056
:10F5800049460268575041465750721C06D0A02287
:10F590000220C136FF36B600D205B0506A1C06D034
:10F5A000A0220220C135FF35AD00D205A850019A36
:10F5B000511C06D0A0200225C132FF329200C005A6
:10F5C0001550621C06D0A0220220C134FF34A400D2
:10F5D000D205A05062469B1A064A9B009446002220
:10F5E0006344DA765A6003B03CBC90469946A24622
:10F5F000AB46F0BDA82900208402020000E100E033
:10F600000C05000014050000F0B5DE4657464546DF
:10F610004E463A4BE0B59B4604791127E3001B1B8D
:10F620009B005B449D7D002D23D18E249D8299609B
:10F630009A75037901229846036864001D51036896
:10F6400000279A6043464246DB009A1A92005A44C9
:10F650009C469368016899460D514D46938AED5C2E
:10F66000938A01339BB29382254BCD505368002B74
:10F6700006D038003CBC90469946A246AB46F0BD49
:10F680008025977D6D001100938A1431BB421CD2F6
:10F69000016802E0938AAB4202D00B59002BF9D0EB
:10F6A000938AAB42EFD000234E460B51938AF35C12
:10F6B0009A465646938A01339BB29382104BCE50A2
:10F6C0001100938A1431BB42E2D380230A885B0085
:10F6D0009A4211D08E21026849005358002BFCD069
:10F6E00001230027D360634642469B1A9B005B447C
:10F6F0001E000023B375BCE70F27F4E7A8290020FC
:10F700001C0500000279D3009B1A044A9B00D31801
:10F71000987D431E9841C0B27047C046A82900207A
:10F72000C12330B5614A9B00D35885B09B055ED597
:10F7300092235B00D158002959D00021D15081215A
:10F74000E533FF338900D150594B997E002901D10F
:10F7500001315160022269460A7090215348C90064
:10F760004258425069460392DA7D68460A72DA6866
:10F77000196801920022DA751A765B6898478E2123
:10F780004A4A49005358002B12D0494B9C8A987D15
:10F79000844257D300245450002809D06A4610727E
:10F7A00014709A689C75196801925B68684698475E
:10F7B000A2233E4A5B00D158002916D00021D15027
:10F7C0003B4B997E002901D001211160DA7D002A8E
:10F7D0000BD0002268460121DA755A7E0170027250
:10F7E000DA68196801925B68984705B030BDC1239B
:10F7F0002E4A9B00D3585B07C1D58421490053583A
:10F80000002BBCD02A4BD87D002827D15050A321F3
:10F81000C90052585A7E8242B1D11A7E1968002A14
:10F820002AD0DA751A69D868DA6000226D465C7EE3
:10F830001A765A76013201902A702C725B686846FB
:10F8400098479CE700205050998A9868405C998AB4
:10F85000013189B29982174BD050A9E7002050504E
:10F86000A320C000597E1258D86842545A7ED87DD1
:10F870000132D2B25A76CDE79A7E002A02D1012017
:10F880000A4A5060C222812408489200A400845091
:10F8900000226C460120DA755A7E20702272DA68E6
:10F8A000684601925B68984769E7C04600200040BF
:10F8B000A82900201C05000010B50220FFF798F8C9
:10F8C00010BDC046F8B5CE46474680B506000D00CF
:10F8D000FFF7D2F80400032812D8012D14D0002D10
:10F8E00022D0022D0CD143001E4C1B18E418657861
:10F8F000002D05D01C4B1B68002B01D02800984719
:10F900000CBC90469946F8BD164F430098461B180C
:10F91000FD5CFB185B78002B13D143461B19FF18C5
:10F92000BA78124B1A55E3E71148FCF7B3FE6200B0
:10F930000C4B12199B189D780C4B1B5DAB42DFD111
:10F94000D6E70C4B0A4899460B4B4A461B68990070
:10F95000C9184900FCF73CFE0028DED14B461E705A
:10F96000DBE7C0460C2A0020402A0020482A00205D
:10F97000EC290020C4290020E829002070B5764B2E
:10F980001B68DB0700D470BD744E754D33782C783E
:10F99000002B05D1172CF6D8724AA300D3589F46E6
:10F9A00000233370FFF700F8F4E7012301203370E0
:10F9B000FFF71EF86C4B00221B686C489900C918B1
:10F9C000FCF706FEDFE7012301203370FFF710F894
:10F9D000654B002219686548FCF7FAFDD3E7FEF78E
:10F9E000F5FF2C70CFE7FEF7F1FF0C232B70CAE771
:10F9F0005F4D2800FCF74EFE11231C1B00D18DE04B
:10FA0000002800D08AE0012C0BD0C830642160436C
:10FA100009F0D0F9544B0022196841432800FCF743
:10FA2000D7FD0220FEF7A6FFADE7FEF7BDFF1223CC
:10FA30002B70A8E7FEF7B8FF0020FEF79BFF13230B
:10FA40002B70A0E7FEF7B0FF0120FEF793FF142311
:10FA50002B7098E7FEF7A8FF0020FEF78BFF012030
:10FA6000FEF788FF15232B708DE70020FEF782FF3D
:10FA700007232B7087E70020FEF76EFF002857D082
:10FA80000020FEF785FF05232B70374B00221968F5
:10FA900036484900FCF79CFD75E70020FEF7A8FFFB
:10FAA00006232B7094E7FEF77FFF00232B706AE795
:10FAB0000020FEF751FF002843D00020FEF768FF2A
:10FAC000A11E4B1E99414B42162119401231264B63
:10FAD00000221B68254859432C70FCF779FD52E73A
:10FAE0000020FEF739FF00281CD00020FEF750FF51
:10FAF0000822032309E00020FEF72EFF00281BD078
:10FB00000020FEF745FF282204232B70164B1748D0
:10FB1000196851430022FCF75BFD34E70220FEF731
:10FB200037FF30E70020FEF725FF02220323ECE732
:10FB30000020FEF71FFFA6E70020FEF71BFF0422B0
:10FB4000E2E70020FEF716FFA11E4B1E99414B4233
:10FB5000022119400231BAE7182A00201C2A00208D
:10FB6000442A0020189B0200E8290020202A0020B7
:10FB7000C829002010B50078FEF77EFF03280BD8B7
:10FB800043001B180548C0184078002804D0044BD7
:10FB90001B68002B00D0984710BDC0460C2A0020DF
:10FBA000402A002010B5FEF759FF10BD70B5864BF6
:10FBB00005001B680024DB0701D4200070BD834EC4
:10FBC0003378002B06D1172D00D9FAE0804AAB001C
:10FBD000D3589F463470FEF7E7FEF4E70123012077
:10FBE0003370FEF705FF7B4B00221B687A489900B3
:10FBF000C918FCF7EDFC0400DFE701230120337096
:10FC0000FEF7F6FE734B002219687348FCF7E0FC20
:10FC10000400D2E70020FEF7ADFE07226F4B002460
:10FC20001A70CAE70020FEF797FE002800D1AFE067
:10FC30000020FEF7ADFE0522684B67481A70654B41
:10FC4000002219684900FCF7C3FC0400B5E7002056
:10FC5000FEF7CEFE0622614B1A70D3E7FEF7A4FE34
:10FC600000225E4B00241A70A7E70020FEF774FE06
:10FC7000002800D195E00020FEF78AFEA91E4B1E49
:10FC800099414B42162119401231544B00221D70EC
:10FC9000504B51481B685943FCF79AFC04008CE711
:10FCA0000020FEF759FE002800D185E00020FEF775
:10FCB0006FFE08200322494B1A70464B0022196838
:10FCC00041434548FCF784FC040076E70020FEF73A
:10FCD00043FE002860D00020FEF75AFE28203F4B4C
:10FCE0000422E9E7FEF760FE0020FEF743FE012054
:10FCF000FEF740FE1522394B00241A705DE7384E9E
:10FD00003000FCF7C7FC04001120451B3CD0002C40
:10FD10003AD1012D0CD0B7306421684309F04AF87C
:10FD20002C4B0022196841433000FCF751FC0400C1
:10FD30000220FEF71FFE40E7FEF736FE1222274B99
:10FD400000241A7039E7FEF72FFE0020FEF712FE9E
:10FD50001322224B00241A702FE7FEF725FE012004
:10FD6000FEF708FE14221D4B00241A7025E7FEF74B
:10FD70002DFE1A4B00241D701FE7FEF727FE0C22F4
:10FD8000164B00241A7018E70220FEF701FE14E754
:10FD90000020FEF7EFFD4EE70020FEF7EBFD04200C
:10FDA0009DE70020FEF7E6FDA91E4B1E99414B4240
:10FDB00002211940023168E70020FEF7DBFD022036
:10FDC00078E70024F9E6C046182A00201C2A002003
:10FDD000789B0200E8290020202A0020442A0020E5
:10FDE000C829002070B50125204B05401960204B23
:10FDF0001860204B1A60830713D50E221E4B1F4834
:10FE00001A700132DA7001329A7101325A724A085C
:10FE10000421FBF7E1FE041E16D0002D20D12000A6
:10FE200070BD002D0DD1164A00211648FCF7BAFB13
:10FE3000041EF4D1144A01211448FCF7B3FB04005A
:10FE4000EDE7FEF7EDFDEEE7FBF71EFF041EE4D144
:10FE50000F4A00210F48FCF7A5FB0400002D01D03C
:10FE6000FEF7DEFD002CDAD1DDE7C046E8290020F0
:10FE7000182A0020402A00200C2A0020D89B0200CB
:10FE80007DF90100009C0200B9F80100F89B020016
:10FE900075FB0100FC9B0200032807D8012A07D04C
:10FEA00001290BD0002916D002290DD00720704758
:10FEB00000220129F4D102000E32D2B243001818F8
:10FEC000084BC2540020F2E743001B180548C01835
:10FED00042700020EBE743001B180248C0188270F4
:10FEE0000020E4E70C2A002010B5FEF7D9FDA0237E
:10FEF000DB059C46E02380006044DB00C2580549D6
:10FF00000A40C250C022C15892020A43C250002087
:10FF100010BDC046FFFFFCFF10B50020FFF7E4FF57
:10FF2000002802D0062800D010BD0120FFF7DCFF1A
:10FF30000028F9D0831F5A1E93415B421840F3E713
:10FF400010B50388102B08D0112B05D1294A13684E
:10FF5000013B1360002B07D010BD264C2368002BFB
:10FF600011D001332360F7E7012202210020FFF7BF
:10FF700093FF00282BD0072829D01F4B1B68002B8C
:10FF8000EAD09847E8E7012200210020FFF784FF2C
:10FF9000002808D0072806D0174B1B68002B00D07C
:10FFA00098472368DDE7072202210120FFF774FF4D
:10FFB000002801D00728EFD1042202210020FFF7FA
:10FFC0006BFF0028EDD00728E6D12368C9E7072298
:10FFD00002210120FFF760FF002801D00728CCD1C3
:10FFE0000A2200210020FFF757FF0028B4D007287D
:10FFF000C3D1B1E7502A00204C2A00201D4B10B578
:020000022000DC
:100000000C1E186006D00120FFF7CCFD002823D07D
:1000100002232370184B1B68002B01D0002010BD59
:10002000012202210020FFF737FF002801D0072816
:10003000F5D1072202210120FFF72EFF002801D071
:100040000728ECD10A2200210020FFF725FF002815
:10005000E4D00728E3D1E1E70020FFF7A3FD002863
:1000600005D1054B20701B68002BD7D1D8E70B2397
:100070002370CFE74C2A0020502A002076DF7047FB
:100080007ADF70477CDF70473CDF704748DF70479E
:1000900010B5FBF711FE10BD10B50400FEF7F8F81F
:1000A000200001F0C9FB10BD10B50100014808F0A7
:1000B00011FC10BD242E002000B5B1B0072812D8C5
:1000C000304B80001B589F460020FFF76FFD002833
:1000D00054D1FFF721FF00284DD1FFF7D5FF0028AD
:1000E00001D0FBF7E9FD31B000BD082310AA009351
:1000F0000193694601AB02A806F07CFF002834D1C9
:10010000019B10AA009902A801F0C8FB0028EAD0C0
:10011000E7E703201C49FBF7CFFA0220FFF746FD73
:100120000028E0D0DDE703201849FBF7C5FA0420DA
:10013000FFF73CFD0028D6D0D3E703201449FBF796
:10014000BBFA0320FFF732FD0028CCD0C9E703201B
:100150001049FBF7B1FA0320FFF728FD002807D16B
:1001600001F0D8FB0028BED0BBE7FBF7A5FDC7E731
:10017000FBF7A2FDF4E7FBF79FFDAEE7FBF79CFD65
:10018000A7E7C046049C0200789D02009C9D0200E7
:10019000C09D0200EC9D020010B50B780C00042BF2
:1001A00066D84C4A9B00D3589F464B490320FBF727
:1001B00083FA4A490320FBF77FFA49490320FBF7FA
:1001C0007BFA237B474A9B009A5847490320FBF759
:1001D000BBFAE279002A00D071E044490320FBF722
:1001E0006BFAA379424A9B009A5842490320FBF7D5
:1001F000ABFAA288002A67D03F490320FBF7A4FA94
:100200003E490320FBF758FA227A3D490320FBF7C9
:100210009BFA627A3B490320FBF796FAA27A3A49A5
:100220000320FBF791FAA27B38490320FBF78CFAF5
:1002300037490320FBF740FA227C36491207D20FD8
:100240000320FBF781FA227C33495207D20F0320A7
:10025000FBF77AFA227C31499207D20F0320FBF791
:1002600073FA227C2E49D207D20F0320FBF76CFAD7
:1002700010BD2C490320FBF71FFAF9E72A49032098
:10028000FBF71AFA221D6188284808F03BFC002879
:10029000EED0FBF711FDEBE703202549FBF70CFA45
:1002A0006088244B9842E3D01321FFF7E7FE002833
:1002B000DED0EEE720490320FBF7FEF9D8E71F491F
:1002C0000320FBF741FA8CE71D490320FBF7F4F903
:1002D00096E7C046249C0200A89E0200CC9E020025
:1002E000E89E0200E09C0200FC9E02001C9F0200AF
:1002F000449D0200609F0200A49F0200C49F020070
:10030000D89F0200F49F020010A002002CA002005F
:1003100058A0020078A0020098A00200B8A0020035
:10032000D8A00200F8A00200189E0200242E00208F
:10033000509E0200FFFF0000889E0200409F0200C6
:10034000809F020010B50378002B00D010BD054B34
:100350003B211888FFF792FE0028F7D0FBF7ACFC92
:10036000F4E7C0465820002030B5104C104B2088D0
:1003700083B0984208D001AD290006F061FE002844
:100380000DD12B789B0701D503B030BD208800210B
:1003900006F006FE0028F7D0FBF78EFCF4E7FBF72B
:1003A0008BFC2B789B07EFD4F0E7C0465820002049
:1003B000FFFF0000F0B5C646040000B501F038FCB0
:1003C000200006F06BFD2100354801F0A3FF20005E
:1003D000FFF7B6FD2388112B33D017D93A2B01D064
:1003E000552B05D1A0881321FFF748FE002825D101
:1003F0002C4D200001F08CFB2800210008F0E8FAC9
:10040000200001F0B9F904BC9046F0BD102BEFD1EB
:1004100003202549FBF750F90720FFF7C7FB002809
:1004200001D0FBF749FC8021A288204B89021A8069
:100430001F480022FCF7CCF80028D9D0FBF73CFC81
:10044000D6E71C490320FBF737F90123174A5B4223
:10045000144D1380A188AA89914218D0164E337882
:10046000002BC6D0154B164F19683800984606F079
:10047000B3FD00280DD143463800196806F0D2FDBF
:10048000062801D0002807D100233370B1E7AB81E3
:10049000E4E7FBF711FCEEE7FBF70EFCF4E7C046E0
:1004A000C42B0020242E0020789C0200582000201D
:1004B000382E0020909C0200342E0020582E002060
:1004C0005C2E0020F8B5204E204F1022310038005D
:1004D000FAF790FE08231E4D30002B6006F0F4FD65
:1004E00000232B60B0422CD00824002102E0013C04
:1004F000002C08D04B1C490078522B6006F0E4FD1C
:100500002968B042F3D1380006F066FD002815D105
:100510002968380006F086FD062801D000280AD197
:1005200000220C4B03201A7001F006F9002801D0BC
:10053000FBF7C2FBF8BDFBF7BFFBF1E7FBF7BCFB2A
:10054000E6E70021DFE7C046FFFF00005C2E002049
:10055000582E0020342E002030B5037885B00400DA
:100560000E2B2FD82C4A9B00D3589F46408801F071
:10057000E7FB217A02006388009103202749FBF7FB
:1005800091F9274DA38827482B80618801F07AFED6
:1005900000283ED1A08806F0CDFD112803D0002808
:1005A00001D0FBF789FB237A012B0BD11E490A6886
:1005B000072A07D8501C086028881C49520050524E
:1005C0001B4A137005B030BD80680028FAD0FBF7D5
:1005D00073FBF7E700690028F4D0F8E7FFF772FF34
:1005E000F0E714490320FBF767F8EBE7002303A9C2
:1005F0000B70408806F0E2FCE4E7FDF71BFB0E28D9
:10060000E0D0082302009A43DCD0E0E706F0DAFCF1
:10061000D8E7FBF751FBBDE7389C020050A1020070
:10062000362E0020C42B0020582E00205C2E0020E7
:10063000342E00201CA1020010B5FBF73DFB10BDBD
:1006400010B507282AD01DD90A280BD00E2808D1AA
:100650001C481D4B82899A4203D008F047FA0528AE
:100660002AD010BD0020FFF7A1FA002821D1FFF702
:1006700053FC00281AD1FFF707FD0028F1D0FBF743
:100680001BFBEEE70428ECD1104B13211888FFF771
:10069000F5FC082302009A43E3D0F0E7094B9A895E
:1006A000094B9A42DDD101F035F9F2E7FBF704FB83
:1006B000E1E7FBF701FBDAE705490238FAF7FCFF4F
:1006C000CFE7C046242E0020FFFF00005820002066
:1006D000AC9C020070B5994B9CB0994A0521002052
:1006E000FBF7CEFE002801D0FBF7E6FA954A002181
:1006F0009548FBF757FF002801D0FBF7DDFA0020F3
:10070000FAF7B8FF002801D0FBF7D6FA8F4A9049D4
:100710000320FFF767FB002801D0FBF7CDFA0DACF3
:1007200021000020FFF76AFC002801D0FBF7C4FA83
:10073000884B04AD1B684822039304938649002329
:100740002800267808F06CFA002801D0FBF7B4FAEC
:1007500022000121002008F0DFFA002801D0FBF779
:10076000ABFA200008F0F0FA002801D0FBF7A4FA59
:100770007A4808F0A5FA002801D0FBF79DFA7848DE
:1007800008F0A8FA002801D0FBF796FA06F098FBCB
:10079000002801D0FBF790FA022E00D1C6E0052216
:1007A00000212000FAF726FD012181222378022072
:1007B0000B431340302213437F221340237007233F
:1007C00063700933E278A37023790A430B43024331
:1007D00003432000E270237106F0D4FB002801D00F
:1007E000FBF76AFA5F4806F0B3FB002801D0FBF77D
:1007F00063FA022E03D15C490320FAF75DFF5B48E0
:1008000001F0C0FC002801D0FBF756FA584A0A2133
:100810000820FBF77BFA002801D0FBF74DFA1123E3
:10082000544E2B70300008F0A5FC310082B2280035
:10083000FFF728FC002801D0FBF73EFA0822002130
:100840002000FAF7D7FC4C4B20000D93C8235B0423
:100850000E93FFF715FC002801D0FBF72DFA3C2280
:1008600000212000FAF7C6FC022305222370013B79
:10087000A3702383414BE27000211B322800012624
:10088000E361FAF7B7FC28221E232E70EE702E715A
:1008900008920993C822B42312010A920B930023F1
:1008A0002A0000930021364B200000F06DFE002846
:1008B00001D0FBF701FA334B21000D93324B334843
:1008C000636008F061F8002801D0FBF7F5F91C22FD
:1008D00000212000FAF78EFCA02292026260F02232
:1008E00000231203A26003220D93E3812374284B9B
:1008F00020006361274B2273A36101F0CDF800282B
:1009000001D0FBF7D9F924490320FAF7D5FEFFF708
:10091000D9FDFBF78BFAFBF727F80028F9D1FFF791
:10092000B5FB0028F5D0FBF7C7F9F2E706F0DAFBD4
:10093000002800D133E7FBF7BFF930E735C70100E6
:10094000042B002069030200009D02004106020002
:10095000CD0C0000749C02007C2B0020B50302002B
:100960009900020059050200049D0200A90002003E
:10097000542A0020209D02009001200354200020D2
:10098000B90002009901020091000200242E00200B
:1009900045030200390602002C9D020071DF7047FA
:1009A00072DF704779DF70477DDF704765DF704722
:1009B000F0B5DE4657464E464546E0B587B09B4605
:1009C00010AB914604CB07001B880291019313885A
:1009D000904603930388002B00D169E000239A46D8
:1009E00004AB0024DD1C03E03B880134A3422EDD70
:1009F0007B68A1009C460422614405A808F07FFBA7
:100A00000022290005A8FFF7D1FF061E2CD12B7864
:100A10004B45E9D1434651461A884B469B1800295D
:100A20002AD00199994241DB5A44290005A8FFF7D1
:100A3000BDFF002838D142462B78128801349B181C
:100A40004246138001239A463B88A342D0DC53469A
:100A5000002B2DD043461B88039A013B9B1A9BB267
:100A6000FF2B23D859468B54300007B03CBC90462E
:100A70009946A246AB46F0BD01990233994215DB77
:100A800043460132694692B21A805B46097A05A84C
:100A9000995443461A882900013292B21A805A4466
:100AA000FFF784FF0028C6D00600DDE70C26DBE751
:100AB0000026D9E7F0B557464E464546DE460023A8
:100AC000E0B5178813802D331400C25C85B0050093
